{
  "_format": "hh-sol-artifact-1",
  "contractName": "AuditEventRegistry",
  "sourceName": "contracts/AuditEventRegistry.sol",
  "abi": [
    {
      "anonymous": false,
      "inputs": [
        {
          "indexed": true,
          "internalType": "bytes32",
          "name": "eventType",
          "type": "bytes32"
        },
        {
          "indexed": true,
          "internalType": "bytes32",
          "name": "policyId",
          "type": "bytes32"
        },
        {
          "indexed": false,
          "internalType": "bytes32",
          "name": "commitmentHash",
          "type": "bytes32"
        },
        {
          "indexed": false,
          "internalType": "uint256",
          "name": "committedAt",
          "type": "uint256"
        },
        {
          "indexed": false,
          "internalType": "address",
          "name": "committedBy",
          "type": "address"
        }
      ],
      "name": "AuditEventRecorded",
      "type": "event"
    },
    {
      "inputs": [
        {
          "internalType": "uint256",
          "name": "index",
          "type": "uint256"
        }
      ],
      "name": "getEvent",
      "outputs": [
        {
          "components": [
            {
              "internalType": "bytes32",
              "name": "eventType",
              "type": "bytes32"
            },
            {
              "internalType": "bytes32",
              "name": "policyId",
              "type": "bytes32"
            },
            {
              "internalType": "bytes32",
              "name": "commitmentHash",
              "type": "bytes32"
            },
            {
              "internalType": "uint256",
              "name": "committedAt",
              "type": "uint256"
            },
            {
              "internalType": "address",
              "name": "committedBy",
              "type": "address"
            }
          ],
          "internalType": "struct AuditEventRegistry.AuditEvent",
          "name": "evt",
          "type": "tuple"
        }
      ],
      "stateMutability": "view",
      "type": "function"
    },
    {
      "inputs": [],
      "name": "getEventCount",
      "outputs": [
        {
          "internalType": "uint256",
          "name": "count",
          "type": "uint256"
        }
      ],
      "stateMutability": "view",
      "type": "function"
    },
    {
      "inputs": [
        {
          "internalType": "bytes32",
          "name": "eventTypeHash",
          "type": "bytes32"
        }
      ],
      "name": "getEventsByType",
      "outputs": [
        {
          "internalType": "uint256[]",
          "name": "eventIndices",
          "type": "uint256[]"
        }
      ],
      "stateMutability": "view",
      "type": "function"
    },
    {
      "inputs": [
        {
          "internalType": "bytes32",
          "name": "policyIdHash",
          "type": "bytes32"
        }
      ],
      "name": "getPolicyEvents",
      "outputs": [
        {
          "internalType": "uint256[]",
          "name": "eventIndices",
          "type": "uint256[]"
        }
      ],
      "stateMutability": "view",
      "type": "function"
    },
    {
      "inputs": [
        {
          "internalType": "bytes32",
          "name": "eventTypeHash",
          "type": "bytes32"
        },
        {
          "internalType": "bytes32",
          "name": "policyIdHash",
          "type": "bytes32"
        },
        {
          "internalType": "bytes32",
          "name": "commitmentHash",
          "type": "bytes32"
        }
      ],
      "name": "recordEvent",
      "outputs": [
        {
          "internalType": "uint256",
          "name": "eventIndex",
          "type": "uint256"
        }
      ],
      "stateMutability": "nonpayable",
      "type": "function"
    }
  ],
  "bytecode": "0x608060405234801561001057600080fd5b5061076a806100206000396000f3fe608060405234801561001057600080fd5b50600436106100575760003560e01c8063363fc53f1461005c5780636d1884e014610082578063d079b7d0146100db578063d9e48f5c146100fb578063decafd4014610103575b600080fd5b61006f61006a366004610658565b610116565b6040519081526020015b60405180910390f35b610095610090366004610684565b6102c3565b6040516100799190815181526020808301519082015260408083015190820152606080830151908201526080918201516001600160a01b03169181019190915260a00190565b6100ee6100e9366004610684565b6103be565b604051610079919061069d565b60005461006f565b6100ee610111366004610684565b61050f565b600080546040805160a080820183528782526020808301888152838501888152426060808701828152336080808a018281526001808e018f558e80529a517f290decd9548b62a8d60345a988386fc84ba6bc95484008f6362f93160ef3e56360058f029081019190915597517f290decd9548b62a8d60345a988386fc84ba6bc95484008f6362f93160ef3e56489015595517f290decd9548b62a8d60345a988386fc84ba6bc95484008f6362f93160ef3e56588015591517f290decd9548b62a8d60345a988386fc84ba6bc95484008f6362f93160ef3e56687015593517f290decd9548b62a8d60345a988386fc84ba6bc95484008f6362f93160ef3e56790950180546001600160a01b0319166001600160a01b039096169590951790945587518086018e90528089018d90529081018b9052808401829052875180820390940184529485018088528351938501939093208952949092529386208590559286905260c081019190915260e0810191909152849086907f83a56b6489eec76fe2fac0061f6675f3cba312f1d9081881cf16e919be6290cd906101000160405180910390a3949350505050565b6040805160a0810182526000808252602082018190529181018290526060810182905260808101829052905482106103515760405162461bcd60e51b815260206004820152602760248201527f41756469744576656e7452656769737472793a20696e646578206f7574206f6660448201526620626f756e647360c81b606482015260840160405180910390fd5b60008281548110610364576103646106e1565b60009182526020918290206040805160a081018252600590930290910180548352600181015493830193909352600283015490820152600382015460608201526004909101546001600160a01b0316608082015292915050565b600080546060919067ffffffffffffffff8111156103de576103de6106f7565b604051908082528060200260200182016040528015610407578160200160208202803683370190505b5090506000805b60005481101561047757846000828154811061042c5761042c6106e1565b9060005260206000209060050201600001540361046f5780838381518110610456576104566106e1565b60209081029190910101528161046b8161070d565b9250505b60010161040e565b508067ffffffffffffffff811115610491576104916106f7565b6040519080825280602002602001820160405280156104ba578160200160208202803683370190505b50925060005b81811015610507578281815181106104da576104da6106e1565b60200260200101518482815181106104f4576104f46106e1565b60209081029190910101526001016104c0565b505050919050565b600080546060919067ffffffffffffffff81111561052f5761052f6106f7565b604051908082528060200260200182016040528015610558578160200160208202803683370190505b5090506000805b6000548110156105c857846000828154811061057d5761057d6106e1565b906000526020600020906005020160010154036105c057808383815181106105a7576105a76106e1565b6020908102919091010152816105bc8161070d565b9250505b60010161055f565b508067ffffffffffffffff8111156105e2576105e26106f7565b60405190808252806020026020018201604052801561060b578160200160208202803683370190505b50925060005b818110156105075782818151811061062b5761062b6106e1565b6020026020010151848281518110610645576106456106e1565b6020908102919091010152600101610611565b60008060006060848603121561066d57600080fd5b505081359360208301359350604090920135919050565b60006020828403121561069657600080fd5b5035919050565b6020808252825182820181905260009190848201906040850190845b818110156106d5578351835292840192918401916001016106b9565b50909695505050505050565b634e487b7160e01b600052603260045260246000fd5b634e487b7160e01b600052604160045260246000fd5b60006001820161072d57634e487b7160e01b600052601160045260246000fd5b506001019056fea26469706673582212201d124e54aef820cfcdb429e3fe5b828a875c68d77c6cf34cfec19422f3e8630864736f6c63430008180033",
  "linkReferences": {},
  "deployedLinkReferences": {}
}