{
  "_format": "hh-sol-artifact-1",
  "contractName": "PolicyRegistry",
  "sourceName": "contracts/PolicyRegistry.sol",
  "abi": [
    {
      "anonymous": false,
      "inputs": [
        {
          "indexed": true,
          "internalType": "bytes32",
          "name": "policyId",
          "type": "bytes32"
        },
        {
          "indexed": false,
          "internalType": "bytes32",
          "name": "commitmentHash",
          "type": "bytes32"
        },
        {
          "indexed": false,
          "internalType": "enum PolicyRegistry.PolicyStatus",
          "name": "status",
          "type": "uint8"
        },
        {
          "indexed": false,
          "internalType": "uint256",
          "name": "committedAt",
          "type": "uint256"
        },
        {
          "indexed": false,
          "internalType": "address",
          "name": "committedBy",
          "type": "address"
        }
      ],
      "name": "PolicyCommitted",
      "type": "event"
    },
    {
      "anonymous": false,
      "inputs": [
        {
          "indexed": true,
          "internalType": "bytes32",
          "name": "policyId",
          "type": "bytes32"
        },
        {
          "indexed": false,
          "internalType": "enum PolicyRegistry.PolicyStatus",
          "name": "newStatus",
          "type": "uint8"
        },
        {
          "indexed": false,
          "internalType": "uint256",
          "name": "updatedAt",
          "type": "uint256"
        },
        {
          "indexed": false,
          "internalType": "address",
          "name": "updatedBy",
          "type": "address"
        }
      ],
      "name": "PolicyStatusUpdated",
      "type": "event"
    },
    {
      "inputs": [
        {
          "internalType": "bytes32",
          "name": "policyId",
          "type": "bytes32"
        },
        {
          "internalType": "bytes32",
          "name": "commitmentHash",
          "type": "bytes32"
        },
        {
          "internalType": "enum PolicyRegistry.PolicyStatus",
          "name": "status",
          "type": "uint8"
        }
      ],
      "name": "commitPolicy",
      "outputs": [
        {
          "internalType": "uint256",
          "name": "committedAt",
          "type": "uint256"
        }
      ],
      "stateMutability": "nonpayable",
      "type": "function"
    },
    {
      "inputs": [
        {
          "internalType": "bytes32",
          "name": "policyId",
          "type": "bytes32"
        }
      ],
      "name": "getCommitmentHash",
      "outputs": [
        {
          "internalType": "bytes32",
          "name": "hash",
          "type": "bytes32"
        }
      ],
      "stateMutability": "view",
      "type": "function"
    },
    {
      "inputs": [
        {
          "internalType": "bytes32",
          "name": "policyId",
          "type": "bytes32"
        }
      ],
      "name": "getCommittedAt",
      "outputs": [
        {
          "internalType": "uint256",
          "name": "timestamp",
          "type": "uint256"
        }
      ],
      "stateMutability": "view",
      "type": "function"
    },
    {
      "inputs": [
        {
          "internalType": "bytes32",
          "name": "policyId",
          "type": "bytes32"
        }
      ],
      "name": "getPolicy",
      "outputs": [
        {
          "components": [
            {
              "internalType": "bytes32",
              "name": "policyId",
              "type": "bytes32"
            },
            {
              "internalType": "bytes32",
              "name": "commitmentHash",
              "type": "bytes32"
            },
            {
              "internalType": "enum PolicyRegistry.PolicyStatus",
              "name": "status",
              "type": "uint8"
            },
            {
              "internalType": "uint256",
              "name": "committedAt",
              "type": "uint256"
            },
            {
              "internalType": "address",
              "name": "committedBy",
              "type": "address"
            }
          ],
          "internalType": "struct PolicyRegistry.PolicyRecord",
          "name": "record",
          "type": "tuple"
        }
      ],
      "stateMutability": "view",
      "type": "function"
    },
    {
      "inputs": [
        {
          "internalType": "uint256",
          "name": "index",
          "type": "uint256"
        }
      ],
      "name": "getPolicyByIndex",
      "outputs": [
        {
          "internalType": "bytes32",
          "name": "policyId",
          "type": "bytes32"
        }
      ],
      "stateMutability": "view",
      "type": "function"
    },
    {
      "inputs": [],
      "name": "getPolicyCount",
      "outputs": [
        {
          "internalType": "uint256",
          "name": "count",
          "type": "uint256"
        }
      ],
      "stateMutability": "view",
      "type": "function"
    },
    {
      "inputs": [
        {
          "internalType": "bytes32",
          "name": "policyId",
          "type": "bytes32"
        }
      ],
      "name": "getPolicyStatus",
      "outputs": [
        {
          "internalType": "enum PolicyRegistry.PolicyStatus",
          "name": "status",
          "type": "uint8"
        }
      ],
      "stateMutability": "view",
      "type": "function"
    },
    {
      "inputs": [
        {
          "internalType": "bytes32",
          "name": "policyId",
          "type": "bytes32"
        }
      ],
      "name": "policyExists",
      "outputs": [
        {
          "internalType": "bool",
          "name": "exists",
          "type": "bool"
        }
      ],
      "stateMutability": "view",
      "type": "function"
    },
    {
      "inputs": [
        {
          "internalType": "bytes32",
          "name": "policyId",
          "type": "bytes32"
        },
        {
          "internalType": "enum PolicyRegistry.PolicyStatus",
          "name": "newStatus",
          "type": "uint8"
        }
      ],
      "name": "updatePolicyStatus",
      "outputs": [],
      "stateMutability": "nonpayable",
      "type": "function"
    }
  ],
  "bytecode": "0x608060405234801561001057600080fd5b5061082d806100206000396000f3fe608060405234801561001057600080fd5b50600436106100935760003560e01c80637b294c9c116100665780637b294c9c14610104578063a3f685f914610117578063d40f112514610137578063da7d23721461014c578063e59771d21461018157600080fd5b806305dd212f1461009857806312742b81146100be5780632ecc272e146100d157806351436181146100f1575b600080fd5b6100ab6100a6366004610624565b610189565b6040519081526020015b60405180910390f35b6100ab6100cc366004610624565b6101d9565b6100e46100df366004610624565b610261565b6040516100b59190610675565b6100ab6100ff366004610624565b6102ab565b6100ab61011236600461069d565b6102f2565b61012a610125366004610624565b6104a7565b6040516100b591906106d2565b61014a61014536600461071f565b610580565b005b61017161015a366004610624565b600090815260208190526040902060030154151590565b60405190151581526020016100b5565b6001546100ab565b60008181526020819052604081206003015482906101c25760405162461bcd60e51b81526004016101b99061074b565b60405180910390fd5b505060009081526020819052604090206003015490565b6001546000908290811061023b5760405162461bcd60e51b815260206004820152602360248201527f506f6c69637952656769737472793a20696e646578206f7574206f6620626f756044820152626e647360e81b60648201526084016101b9565b6001838154811061024e5761024e610780565b9060005260206000200154915050919050565b60008181526020819052604081206003015482906102915760405162461bcd60e51b81526004016101b99061074b565b505060009081526020819052604090206002015460ff1690565b60008181526020819052604081206003015482906102db5760405162461bcd60e51b81526004016101b99061074b565b505060009081526020819052604090206001015490565b600083815260208190526040812060030154156103625760405162461bcd60e51b815260206004820152602860248201527f506f6c69637952656769737472793a20706f6c69637920616c726561647920636044820152671bdb5b5a5d1d195960c21b60648201526084016101b9565b6040518060a0016040528085815260200184815260200183600481111561038b5761038b61063d565b8152602001428152602001336001600160a01b0316815250600080868152602001908152602001600020600082015181600001556020820151816001015560408201518160020160006101000a81548160ff021916908360048111156103f3576103f361063d565b021790555060608201516003820155608090910151600490910180546001600160a01b0319166001600160a01b039092169190911790556001805480820182556000919091527fb10e2d527612073b26eecdfd717e6a320cf44b4afac2b0732d9fcbe2b7fa0cf60184905560405184907f30fd502655c7e4f8ccb7bc12dbf0388a1d48cccf551466031c6a6a46311583ce90610496908690869042903390610796565b60405180910390a250429392505050565b6040805160a081018252600080825260208083018290528284018290526060830182905260808301829052848252819052919091206003015482906104fe5760405162461bcd60e51b81526004016101b99061074b565b60008381526020818152604091829020825160a081018452815481526001820154928101929092526002810154919290919083019060ff1660048111156105475761054761063d565b60048111156105585761055861063d565b8152600382015460208201526004909101546001600160a01b03166040909101529392505050565b60008281526020819052604090206003015482906105b05760405162461bcd60e51b81526004016101b99061074b565b6000838152602081905260409020600201805483919060ff191660018360048111156105de576105de61063d565b0217905550827fcd714327fd0ee3d0a7c4b7a749399ec9a48b5f98721d28e159b796ae9edd6e96834233604051610617939291906107ca565b60405180910390a2505050565b60006020828403121561063657600080fd5b5035919050565b634e487b7160e01b600052602160045260246000fd5b6005811061067157634e487b7160e01b600052602160045260246000fd5b9052565b602081016106838284610653565b92915050565b80356005811061069857600080fd5b919050565b6000806000606084860312156106b257600080fd5b83359250602084013591506106c960408501610689565b90509250925092565b600060a082019050825182526020830151602083015260408301516106fa6040840182610653565b50606083810151908301526080928301516001600160a01b0316929091019190915290565b6000806040838503121561073257600080fd5b8235915061074260208401610689565b90509250929050565b6020808252818101527f506f6c69637952656769737472793a20706f6c696379206e6f7420666f756e64604082015260600190565b634e487b7160e01b600052603260045260246000fd5b848152608081016107aa6020830186610653565b60408201939093526001600160a01b039190911660609091015292915050565b606081016107d88286610653565b60208201939093526001600160a01b039190911660409091015291905056fea2646970667358221220c5218629dafae06f4c30eb1afb5e452825bb58cc55a0de18815387398e2949c764736f6c63430008180033",
  "linkReferences": {},
  "deployedLinkReferences": {}
}