{"contracts/PolicyRegistry.sol":{"PolicyRegistry":{"abi":[{"anonymous":false,"inputs":[{"indexed":true,"internalType":"bytes32","name":"policyId","type":"bytes32"},{"indexed":false,"internalType":"bytes32","name":"commitmentHash","type":"bytes32"},{"indexed":false,"internalType":"enum PolicyRegistry.PolicyStatus","name":"status","type":"uint8"},{"indexed":false,"internalType":"uint256","name":"committedAt","type":"uint256"},{"indexed":false,"internalType":"address","name":"committedBy","type":"address"}],"name":"PolicyCommitted","type":"event"},{"anonymous":false,"inputs":[{"indexed":true,"internalType":"bytes32","name":"policyId","type":"bytes32"},{"indexed":false,"internalType":"enum PolicyRegistry.PolicyStatus","name":"newStatus","type":"uint8"},{"indexed":false,"internalType":"uint256","name":"updatedAt","type":"uint256"},{"indexed":false,"internalType":"address","name":"updatedBy","type":"address"}],"name":"PolicyStatusUpdated","type":"event"},{"inputs":[{"internalType":"bytes32","name":"policyId","type":"bytes32"},{"internalType":"bytes32","name":"commitmentHash","type":"bytes32"},{"internalType":"enum PolicyRegistry.PolicyStatus","name":"status","type":"uint8"}],"name":"commitPolicy","outputs":[{"internalType":"uint256","name":"committedAt","type":"uint256"}],"stateMutability":"nonpayable","type":"function"},{"inputs":[{"internalType":"bytes32","name":"policyId","type":"bytes32"}],"name":"getCommitmentHash","outputs":[{"internalType":"bytes32","name":"hash","type":"bytes32"}],"stateMutability":"view","type":"function"},{"inputs":[{"internalType":"bytes32","name":"policyId","type":"bytes32"}],"name":"getCommittedAt","outputs":[{"internalType":"uint256","name":"timestamp","type":"uint256"}],"stateMutability":"view","type":"function"},{"inputs":[{"internalType":"bytes32","name":"policyId","type":"bytes32"}],"name":"getPolicy","outputs":[{"components":[{"internalType":"bytes32","name":"policyId","type":"bytes32"},{"internalType":"bytes32","name":"commitmentHash","type":"bytes32"},{"internalType":"enum PolicyRegistry.PolicyStatus","name":"status","type":"uint8"},{"internalType":"uint256","name":"committedAt","type":"uint256"},{"internalType":"address","name":"committedBy","type":"address"}],"internalType":"struct PolicyRegistry.PolicyRecord","name":"record","type":"tuple"}],"stateMutability":"view","type":"function"},{"inputs":[{"internalType":"uint256","name":"index","type":"uint256"}],"name":"getPolicyByIndex","outputs":[{"internalType":"bytes32","name":"policyId","type":"bytes32"}],"stateMutability":"view","type":"function"},{"inputs":[],"name":"getPolicyCount","outputs":[{"internalType":"uint256","name":"count","type":"uint256"}],"stateMutability":"view","type":"function"},{"inputs":[{"internalType":"bytes32","name":"policyId","type":"bytes32"}],"name":"getPolicyStatus","outputs":[{"internalType":"enum PolicyRegistry.PolicyStatus","name":"status","type":"uint8"}],"stateMutability":"view","type":"function"},{"inputs":[{"internalType":"bytes32","name":"policyId","type":"bytes32"}],"name":"policyExists","outputs":[{"internalType":"bool","name":"exists","type":"bool"}],"stateMutability":"view","type":"function"},{"inputs":[{"internalType":"bytes32","name":"policyId","type":"bytes32"},{"internalType":"enum PolicyRegistry.PolicyStatus","name":"newStatus","type":"uint8"}],"name":"updatePolicyStatus","outputs":[],"stateMutability":"nonpayable","type":"function"}],"evm":{"bytecode":{"linkReferences":{},"object":"608060405234801561001057600080fd5b5061082d806100206000396000f3fe608060405234801561001057600080fd5b50600436106100935760003560e01c80637b294c9c116100665780637b294c9c14610104578063a3f685f914610117578063d40f112514610137578063da7d23721461014c578063e59771d21461018157600080fd5b806305dd212f1461009857806312742b81146100be5780632ecc272e146100d157806351436181146100f1575b600080fd5b6100ab6100a6366004610624565b610189565b6040519081526020015b60405180910390f35b6100ab6100cc366004610624565b6101d9565b6100e46100df366004610624565b610261565b6040516100b59190610675565b6100ab6100ff366004610624565b6102ab565b6100ab61011236600461069d565b6102f2565b61012a610125366004610624565b6104a7565b6040516100b591906106d2565b61014a61014536600461071f565b610580565b005b61017161015a366004610624565b600090815260208190526040902060030154151590565b60405190151581526020016100b5565b6001546100ab565b60008181526020819052604081206003015482906101c25760405162461bcd60e51b81526004016101b99061074b565b60405180910390fd5b505060009081526020819052604090206003015490565b6001546000908290811061023b5760405162461bcd60e51b815260206004820152602360248201527f506f6c69637952656769737472793a20696e646578206f7574206f6620626f756044820152626e647360e81b60648201526084016101b9565b6001838154811061024e5761024e610780565b9060005260206000200154915050919050565b60008181526020819052604081206003015482906102915760405162461bcd60e51b81526004016101b99061074b565b505060009081526020819052604090206002015460ff1690565b60008181526020819052604081206003015482906102db5760405162461bcd60e51b81526004016101b99061074b565b505060009081526020819052604090206001015490565b600083815260208190526040812060030154156103625760405162461bcd60e51b815260206004820152602860248201527f506f6c69637952656769737472793a20706f6c69637920616c726561647920636044820152671bdb5b5a5d1d195960c21b60648201526084016101b9565b6040518060a0016040528085815260200184815260200183600481111561038b5761038b61063d565b8152602001428152602001336001600160a01b0316815250600080868152602001908152602001600020600082015181600001556020820151816001015560408201518160020160006101000a81548160ff021916908360048111156103f3576103f361063d565b021790555060608201516003820155608090910151600490910180546001600160a01b0319166001600160a01b039092169190911790556001805480820182556000919091527fb10e2d527612073b26eecdfd717e6a320cf44b4afac2b0732d9fcbe2b7fa0cf60184905560405184907f30fd502655c7e4f8ccb7bc12dbf0388a1d48cccf551466031c6a6a46311583ce90610496908690869042903390610796565b60405180910390a250429392505050565b6040805160a081018252600080825260208083018290528284018290526060830182905260808301829052848252819052919091206003015482906104fe5760405162461bcd60e51b81526004016101b99061074b565b60008381526020818152604091829020825160a081018452815481526001820154928101929092526002810154919290919083019060ff1660048111156105475761054761063d565b60048111156105585761055861063d565b8152600382015460208201526004909101546001600160a01b03166040909101529392505050565b60008281526020819052604090206003015482906105b05760405162461bcd60e51b81526004016101b99061074b565b6000838152602081905260409020600201805483919060ff191660018360048111156105de576105de61063d565b0217905550827fcd714327fd0ee3d0a7c4b7a749399ec9a48b5f98721d28e159b796ae9edd6e96834233604051610617939291906107ca565b60405180910390a2505050565b60006020828403121561063657600080fd5b5035919050565b634e487b7160e01b600052602160045260246000fd5b6005811061067157634e487b7160e01b600052602160045260246000fd5b9052565b602081016106838284610653565b92915050565b80356005811061069857600080fd5b919050565b6000806000606084860312156106b257600080fd5b83359250602084013591506106c960408501610689565b90509250925092565b600060a082019050825182526020830151602083015260408301516106fa6040840182610653565b50606083810151908301526080928301516001600160a01b0316929091019190915290565b6000806040838503121561073257600080fd5b8235915061074260208401610689565b90509250929050565b6020808252818101527f506f6c69637952656769737472793a20706f6c696379206e6f7420666f756e64604082015260600190565b634e487b7160e01b600052603260045260246000fd5b848152608081016107aa6020830186610653565b60408201939093526001600160a01b039190911660609091015292915050565b606081016107d88286610653565b60208201939093526001600160a01b039190911660409091015291905056fea2646970667358221220c5218629dafae06f4c30eb1afb5e452825bb58cc55a0de18815387398e2949c764736f6c63430008180033","opcodes":"PUSH1 0x80 PUSH1 0x40 MSTORE CALLVALUE DUP1 ISZERO PUSH2 0x10 JUMPI PUSH1 0x0 DUP1 REVERT JUMPDEST POP PUSH2 0x82D DUP1 PUSH2 0x20 PUSH1 0x0 CODECOPY PUSH1 0x0 RETURN INVALID PUSH1 0x80 PUSH1 0x40 MSTORE CALLVALUE DUP1 ISZERO PUSH2 0x10 JUMPI PUSH1 0x0 DUP1 REVERT JUMPDEST POP PUSH1 0x4 CALLDATASIZE LT PUSH2 0x93 JUMPI PUSH1 0x0 CALLDATALOAD PUSH1 0xE0 SHR DUP1 PUSH4 0x7B294C9C GT PUSH2 0x66 JUMPI DUP1 PUSH4 0x7B294C9C EQ PUSH2 0x104 JUMPI DUP1 PUSH4 0xA3F685F9 EQ PUSH2 0x117 JUMPI DUP1 PUSH4 0xD40F1125 EQ PUSH2 0x137 JUMPI DUP1 PUSH4 0xDA7D2372 EQ PUSH2 0x14C JUMPI DUP1 PUSH4 0xE59771D2 EQ PUSH2 0x181 JUMPI PUSH1 0x0 DUP1 REVERT JUMPDEST DUP1 PUSH4 0x5DD212F EQ PUSH2 0x98 JUMPI DUP1 PUSH4 0x12742B81 EQ PUSH2 0xBE JUMPI DUP1 PUSH4 0x2ECC272E EQ PUSH2 0xD1 JUMPI DUP1 PUSH4 0x51436181 EQ PUSH2 0xF1 JUMPI JUMPDEST PUSH1 0x0 DUP1 REVERT JUMPDEST PUSH2 0xAB PUSH2 0xA6 CALLDATASIZE PUSH1 0x4 PUSH2 0x624 JUMP JUMPDEST PUSH2 0x189 JUMP JUMPDEST PUSH1 0x40 MLOAD SWAP1 DUP2 MSTORE PUSH1 0x20 ADD JUMPDEST PUSH1 0x40 MLOAD DUP1 SWAP2 SUB SWAP1 RETURN JUMPDEST PUSH2 0xAB PUSH2 0xCC CALLDATASIZE PUSH1 0x4 PUSH2 0x624 JUMP JUMPDEST PUSH2 0x1D9 JUMP JUMPDEST PUSH2 0xE4 PUSH2 0xDF CALLDATASIZE PUSH1 0x4 PUSH2 0x624 JUMP JUMPDEST PUSH2 0x261 JUMP JUMPDEST PUSH1 0x40 MLOAD PUSH2 0xB5 SWAP2 SWAP1 PUSH2 0x675 JUMP JUMPDEST PUSH2 0xAB PUSH2 0xFF CALLDATASIZE PUSH1 0x4 PUSH2 0x624 JUMP JUMPDEST PUSH2 0x2AB JUMP JUMPDEST PUSH2 0xAB PUSH2 0x112 CALLDATASIZE PUSH1 0x4 PUSH2 0x69D JUMP JUMPDEST PUSH2 0x2F2 JUMP JUMPDEST PUSH2 0x12A PUSH2 0x125 CALLDATASIZE PUSH1 0x4 PUSH2 0x624 JUMP JUMPDEST PUSH2 0x4A7 JUMP JUMPDEST PUSH1 0x40 MLOAD PUSH2 0xB5 SWAP2 SWAP1 PUSH2 0x6D2 JUMP JUMPDEST PUSH2 0x14A PUSH2 0x145 CALLDATASIZE PUSH1 0x4 PUSH2 0x71F JUMP JUMPDEST PUSH2 0x580 JUMP JUMPDEST STOP JUMPDEST PUSH2 0x171 PUSH2 0x15A CALLDATASIZE PUSH1 0x4 PUSH2 0x624 JUMP JUMPDEST PUSH1 0x0 SWAP1 DUP2 MSTORE PUSH1 0x20 DUP2 SWAP1 MSTORE PUSH1 0x40 SWAP1 KECCAK256 PUSH1 0x3 ADD SLOAD ISZERO ISZERO SWAP1 JUMP JUMPDEST PUSH1 0x40 MLOAD SWAP1 ISZERO ISZERO DUP2 MSTORE PUSH1 0x20 ADD PUSH2 0xB5 JUMP JUMPDEST PUSH1 0x1 SLOAD PUSH2 0xAB JUMP JUMPDEST PUSH1 0x0 DUP2 DUP2 MSTORE PUSH1 0x20 DUP2 SWAP1 MSTORE PUSH1 0x40 DUP2 KECCAK256 PUSH1 0x3 ADD SLOAD DUP3 SWAP1 PUSH2 0x1C2 JUMPI PUSH1 0x40 MLOAD PUSH3 0x461BCD PUSH1 0xE5 SHL DUP2 MSTORE PUSH1 0x4 ADD PUSH2 0x1B9 SWAP1 PUSH2 0x74B JUMP JUMPDEST PUSH1 0x40 MLOAD DUP1 SWAP2 SUB SWAP1 REVERT JUMPDEST POP POP PUSH1 0x0 SWAP1 DUP2 MSTORE PUSH1 0x20 DUP2 SWAP1 MSTORE PUSH1 0x40 SWAP1 KECCAK256 PUSH1 0x3 ADD SLOAD SWAP1 JUMP JUMPDEST PUSH1 0x1 SLOAD PUSH1 0x0 SWAP1 DUP3 SWAP1 DUP2 LT PUSH2 0x23B JUMPI PUSH1 0x40 MLOAD PUSH3 0x461BCD PUSH1 0xE5 SHL DUP2 MSTORE PUSH1 0x20 PUSH1 0x4 DUP3 ADD MSTORE PUSH1 0x23 PUSH1 0x24 DUP3 ADD MSTORE PUSH32 0x506F6C69637952656769737472793A20696E646578206F7574206F6620626F75 PUSH1 0x44 DUP3 ADD MSTORE PUSH3 0x6E6473 PUSH1 0xE8 SHL PUSH1 0x64 DUP3 ADD MSTORE PUSH1 0x84 ADD PUSH2 0x1B9 JUMP JUMPDEST PUSH1 0x1 DUP4 DUP2 SLOAD DUP2 LT PUSH2 0x24E JUMPI PUSH2 0x24E PUSH2 0x780 JUMP JUMPDEST SWAP1 PUSH1 0x0 MSTORE PUSH1 0x20 PUSH1 0x0 KECCAK256 ADD SLOAD SWAP2 POP POP SWAP2 SWAP1 POP JUMP JUMPDEST PUSH1 0x0 DUP2 DUP2 MSTORE PUSH1 0x20 DUP2 SWAP1 MSTORE PUSH1 0x40 DUP2 KECCAK256 PUSH1 0x3 ADD SLOAD DUP3 SWAP1 PUSH2 0x291 JUMPI PUSH1 0x40 MLOAD PUSH3 0x461BCD PUSH1 0xE5 SHL DUP2 MSTORE PUSH1 0x4 ADD PUSH2 0x1B9 SWAP1 PUSH2 0x74B JUMP JUMPDEST POP POP PUSH1 0x0 SWAP1 DUP2 MSTORE PUSH1 0x20 DUP2 SWAP1 MSTORE PUSH1 0x40 SWAP1 KECCAK256 PUSH1 0x2 ADD SLOAD PUSH1 0xFF AND SWAP1 JUMP JUMPDEST PUSH1 0x0 DUP2 DUP2 MSTORE PUSH1 0x20 DUP2 SWAP1 MSTORE PUSH1 0x40 DUP2 KECCAK256 PUSH1 0x3 ADD SLOAD DUP3 SWAP1 PUSH2 0x2DB JUMPI PUSH1 0x40 MLOAD PUSH3 0x461BCD PUSH1 0xE5 SHL DUP2 MSTORE PUSH1 0x4 ADD PUSH2 0x1B9 SWAP1 PUSH2 0x74B JUMP JUMPDEST POP POP PUSH1 0x0 SWAP1 DUP2 MSTORE PUSH1 0x20 DUP2 SWAP1 MSTORE PUSH1 0x40 SWAP1 KECCAK256 PUSH1 0x1 ADD SLOAD SWAP1 JUMP JUMPDEST PUSH1 0x0 DUP4 DUP2 MSTORE PUSH1 0x20 DUP2 SWAP1 MSTORE PUSH1 0x40 DUP2 KECCAK256 PUSH1 0x3 ADD SLOAD ISZERO PUSH2 0x362 JUMPI PUSH1 0x40 MLOAD PUSH3 0x461BCD PUSH1 0xE5 SHL DUP2 MSTORE PUSH1 0x20 PUSH1 0x4 DUP3 ADD MSTORE PUSH1 0x28 PUSH1 0x24 DUP3 ADD MSTORE PUSH32 0x506F6C69637952656769737472793A20706F6C69637920616C72656164792063 PUSH1 0x44 DUP3 ADD MSTORE PUSH8 0x1BDB5B5A5D1D1959 PUSH1 0xC2 SHL PUSH1 0x64 DUP3 ADD MSTORE PUSH1 0x84 ADD PUSH2 0x1B9 JUMP JUMPDEST PUSH1 0x40 MLOAD DUP1 PUSH1 0xA0 ADD PUSH1 0x40 MSTORE DUP1 DUP6 DUP2 MSTORE PUSH1 0x20 ADD DUP5 DUP2 MSTORE PUSH1 0x20 ADD DUP4 PUSH1 0x4 DUP2 GT ISZERO PUSH2 0x38B JUMPI PUSH2 0x38B PUSH2 0x63D JUMP JUMPDEST DUP2 MSTORE PUSH1 0x20 ADD TIMESTAMP DUP2 MSTORE PUSH1 0x20 ADD CALLER PUSH1 0x1 PUSH1 0x1 PUSH1 0xA0 SHL SUB AND DUP2 MSTORE POP PUSH1 0x0 DUP1 DUP7 DUP2 MSTORE PUSH1 0x20 ADD SWAP1 DUP2 MSTORE PUSH1 0x20 ADD PUSH1 0x0 KECCAK256 PUSH1 0x0 DUP3 ADD MLOAD DUP2 PUSH1 0x0 ADD SSTORE PUSH1 0x20 DUP3 ADD MLOAD DUP2 PUSH1 0x1 ADD SSTORE PUSH1 0x40 DUP3 ADD MLOAD DUP2 PUSH1 0x2 ADD PUSH1 0x0 PUSH2 0x100 EXP DUP2 SLOAD DUP2 PUSH1 0xFF MUL NOT AND SWAP1 DUP4 PUSH1 0x4 DUP2 GT ISZERO PUSH2 0x3F3 JUMPI PUSH2 0x3F3 PUSH2 0x63D JUMP JUMPDEST MUL OR SWAP1 SSTORE POP PUSH1 0x60 DUP3 ADD MLOAD PUSH1 0x3 DUP3 ADD SSTORE PUSH1 0x80 SWAP1 SWAP2 ADD MLOAD PUSH1 0x4 SWAP1 SWAP2 ADD DUP1 SLOAD PUSH1 0x1 PUSH1 0x1 PUSH1 0xA0 SHL SUB NOT AND PUSH1 0x1 PUSH1 0x1 PUSH1 0xA0 SHL SUB SWAP1 SWAP3 AND SWAP2 SWAP1 SWAP2 OR SWAP1 SSTORE PUSH1 0x1 DUP1 SLOAD DUP1 DUP3 ADD DUP3 SSTORE PUSH1 0x0 SWAP2 SWAP1 SWAP2 MSTORE PUSH32 0xB10E2D527612073B26EECDFD717E6A320CF44B4AFAC2B0732D9FCBE2B7FA0CF6 ADD DUP5 SWAP1 SSTORE PUSH1 0x40 MLOAD DUP5 SWAP1 PUSH32 0x30FD502655C7E4F8CCB7BC12DBF0388A1D48CCCF551466031C6A6A46311583CE SWAP1 PUSH2 0x496 SWAP1 DUP7 SWAP1 DUP7 SWAP1 TIMESTAMP SWAP1 CALLER SWAP1 PUSH2 0x796 JUMP JUMPDEST PUSH1 0x40 MLOAD DUP1 SWAP2 SUB SWAP1 LOG2 POP TIMESTAMP SWAP4 SWAP3 POP POP POP JUMP JUMPDEST PUSH1 0x40 DUP1 MLOAD PUSH1 0xA0 DUP2 ADD DUP3 MSTORE PUSH1 0x0 DUP1 DUP3 MSTORE PUSH1 0x20 DUP1 DUP4 ADD DUP3 SWAP1 MSTORE DUP3 DUP5 ADD DUP3 SWAP1 MSTORE PUSH1 0x60 DUP4 ADD DUP3 SWAP1 MSTORE PUSH1 0x80 DUP4 ADD DUP3 SWAP1 MSTORE DUP5 DUP3 MSTORE DUP2 SWAP1 MSTORE SWAP2 SWAP1 SWAP2 KECCAK256 PUSH1 0x3 ADD SLOAD DUP3 SWAP1 PUSH2 0x4FE JUMPI PUSH1 0x40 MLOAD PUSH3 0x461BCD PUSH1 0xE5 SHL DUP2 MSTORE PUSH1 0x4 ADD PUSH2 0x1B9 SWAP1 PUSH2 0x74B JUMP JUMPDEST PUSH1 0x0 DUP4 DUP2 MSTORE PUSH1 0x20 DUP2 DUP2 MSTORE PUSH1 0x40 SWAP2 DUP3 SWAP1 KECCAK256 DUP3 MLOAD PUSH1 0xA0 DUP2 ADD DUP5 MSTORE DUP2 SLOAD DUP2 MSTORE PUSH1 0x1 DUP3 ADD SLOAD SWAP3 DUP2 ADD SWAP3 SWAP1 SWAP3 MSTORE PUSH1 0x2 DUP2 ADD SLOAD SWAP2 SWAP3 SWAP1 SWAP2 SWAP1 DUP4 ADD SWAP1 PUSH1 0xFF AND PUSH1 0x4 DUP2 GT ISZERO PUSH2 0x547 JUMPI PUSH2 0x547 PUSH2 0x63D JUMP JUMPDEST PUSH1 0x4 DUP2 GT ISZERO PUSH2 0x558 JUMPI PUSH2 0x558 PUSH2 0x63D JUMP JUMPDEST DUP2 MSTORE PUSH1 0x3 DUP3 ADD SLOAD PUSH1 0x20 DUP3 ADD MSTORE PUSH1 0x4 SWAP1 SWAP2 ADD SLOAD PUSH1 0x1 PUSH1 0x1 PUSH1 0xA0 SHL SUB AND PUSH1 0x40 SWAP1 SWAP2 ADD MSTORE SWAP4 SWAP3 POP POP POP JUMP JUMPDEST PUSH1 0x0 DUP3 DUP2 MSTORE PUSH1 0x20 DUP2 SWAP1 MSTORE PUSH1 0x40 SWAP1 KECCAK256 PUSH1 0x3 ADD SLOAD DUP3 SWAP1 PUSH2 0x5B0 JUMPI PUSH1 0x40 MLOAD PUSH3 0x461BCD PUSH1 0xE5 SHL DUP2 MSTORE PUSH1 0x4 ADD PUSH2 0x1B9 SWAP1 PUSH2 0x74B JUMP JUMPDEST PUSH1 0x0 DUP4 DUP2 MSTORE PUSH1 0x20 DUP2 SWAP1 MSTORE PUSH1 0x40 SWAP1 KECCAK256 PUSH1 0x2 ADD DUP1 SLOAD DUP4 SWAP2 SWAP1 PUSH1 0xFF NOT AND PUSH1 0x1 DUP4 PUSH1 0x4 DUP2 GT ISZERO PUSH2 0x5DE JUMPI PUSH2 0x5DE PUSH2 0x63D JUMP JUMPDEST MUL OR SWAP1 SSTORE POP DUP3 PUSH32 0xCD714327FD0EE3D0A7C4B7A749399EC9A48B5F98721D28E159B796AE9EDD6E96 DUP4 TIMESTAMP CALLER PUSH1 0x40 MLOAD PUSH2 0x617 SWAP4 SWAP3 SWAP2 SWAP1 PUSH2 0x7CA JUMP JUMPDEST PUSH1 0x40 MLOAD DUP1 SWAP2 SUB SWAP1 LOG2 POP POP POP JUMP JUMPDEST PUSH1 0x0 PUSH1 0x20 DUP3 DUP5 SUB SLT ISZERO PUSH2 0x636 JUMPI PUSH1 0x0 DUP1 REVERT JUMPDEST POP CALLDATALOAD SWAP2 SWAP1 POP JUMP JUMPDEST PUSH4 0x4E487B71 PUSH1 0xE0 SHL PUSH1 0x0 MSTORE PUSH1 0x21 PUSH1 0x4 MSTORE PUSH1 0x24 PUSH1 0x0 REVERT JUMPDEST PUSH1 0x5 DUP2 LT PUSH2 0x671 JUMPI PUSH4 0x4E487B71 PUSH1 0xE0 SHL PUSH1 0x0 MSTORE PUSH1 0x21 PUSH1 0x4 MSTORE PUSH1 0x24 PUSH1 0x0 REVERT JUMPDEST SWAP1 MSTORE JUMP JUMPDEST PUSH1 0x20 DUP2 ADD PUSH2 0x683 DUP3 DUP5 PUSH2 0x653 JUMP JUMPDEST SWAP3 SWAP2 POP POP JUMP JUMPDEST DUP1 CALLDATALOAD PUSH1 0x5 DUP2 LT PUSH2 0x698 JUMPI PUSH1 0x0 DUP1 REVERT JUMPDEST SWAP2 SWAP1 POP JUMP JUMPDEST PUSH1 0x0 DUP1 PUSH1 0x0 PUSH1 0x60 DUP5 DUP7 SUB SLT ISZERO PUSH2 0x6B2 JUMPI PUSH1 0x0 DUP1 REVERT JUMPDEST DUP4 CALLDATALOAD SWAP3 POP PUSH1 0x20 DUP5 ADD CALLDATALOAD SWAP2 POP PUSH2 0x6C9 PUSH1 0x40 DUP6 ADD PUSH2 0x689 JUMP JUMPDEST SWAP1 POP SWAP3 POP SWAP3 POP SWAP3 JUMP JUMPDEST PUSH1 0x0 PUSH1 0xA0 DUP3 ADD SWAP1 POP DUP3 MLOAD DUP3 MSTORE PUSH1 0x20 DUP4 ADD MLOAD PUSH1 0x20 DUP4 ADD MSTORE PUSH1 0x40 DUP4 ADD MLOAD PUSH2 0x6FA PUSH1 0x40 DUP5 ADD DUP3 PUSH2 0x653 JUMP JUMPDEST POP PUSH1 0x60 DUP4 DUP2 ADD MLOAD SWAP1 DUP4 ADD MSTORE PUSH1 0x80 SWAP3 DUP4 ADD MLOAD PUSH1 0x1 PUSH1 0x1 PUSH1 0xA0 SHL SUB AND SWAP3 SWAP1 SWAP2 ADD SWAP2 SWAP1 SWAP2 MSTORE SWAP1 JUMP JUMPDEST PUSH1 0x0 DUP1 PUSH1 0x40 DUP4 DUP6 SUB SLT ISZERO PUSH2 0x732 JUMPI PUSH1 0x0 DUP1 REVERT JUMPDEST DUP3 CALLDATALOAD SWAP2 POP PUSH2 0x742 PUSH1 0x20 DUP5 ADD PUSH2 0x689 JUMP JUMPDEST SWAP1 POP SWAP3 POP SWAP3 SWAP1 POP JUMP JUMPDEST PUSH1 0x20 DUP1 DUP3 MSTORE DUP2 DUP2 ADD MSTORE PUSH32 0x506F6C69637952656769737472793A20706F6C696379206E6F7420666F756E64 PUSH1 0x40 DUP3 ADD MSTORE PUSH1 0x60 ADD SWAP1 JUMP JUMPDEST PUSH4 0x4E487B71 PUSH1 0xE0 SHL PUSH1 0x0 MSTORE PUSH1 0x32 PUSH1 0x4 MSTORE PUSH1 0x24 PUSH1 0x0 REVERT JUMPDEST DUP5 DUP2 MSTORE PUSH1 0x80 DUP2 ADD PUSH2 0x7AA PUSH1 0x20 DUP4 ADD DUP7 PUSH2 0x653 JUMP JUMPDEST PUSH1 0x40 DUP3 ADD SWAP4 SWAP1 SWAP4 MSTORE PUSH1 0x1 PUSH1 0x1 PUSH1 0xA0 SHL SUB SWAP2 SWAP1 SWAP2 AND PUSH1 0x60 SWAP1 SWAP2 ADD MSTORE SWAP3 SWAP2 POP POP JUMP JUMPDEST PUSH1 0x60 DUP2 ADD PUSH2 0x7D8 DUP3 DUP7 PUSH2 0x653 JUMP JUMPDEST PUSH1 0x20 DUP3 ADD SWAP4 SWAP1 SWAP4 MSTORE PUSH1 0x1 PUSH1 0x1 PUSH1 0xA0 SHL SUB SWAP2 SWAP1 SWAP2 AND PUSH1 0x40 SWAP1 SWAP2 ADD MSTORE SWAP2 SWAP1 POP JUMP INVALID LOG2 PUSH5 0x6970667358 0x22 SLT KECCAK256 0xC5 0x21 DUP7 0x29 0xDA STATICCALL 0xE0 PUSH16 0x4C30EB1AFB5E452825BB58CC55A0DE18 DUP2 MSTORE8 DUP8 CODECOPY DUP15 0x29 BLOBHASH 0xC7 PUSH5 0x736F6C6343 STOP ADDMOD XOR STOP CALLER "},"methodIdentifiers":{"commitPolicy(bytes32,bytes32,uint8)":"7b294c9c","getCommitmentHash(bytes32)":"51436181","getCommittedAt(bytes32)":"05dd212f","getPolicy(bytes32)":"a3f685f9","getPolicyByIndex(uint256)":"12742b81","getPolicyCount()":"e59771d2","getPolicyStatus(bytes32)":"2ecc272e","policyExists(bytes32)":"da7d2372","updatePolicyStatus(bytes32,uint8)":"d40f1125"}}}}}