{"contracts/AuditEventRegistry.sol":{"AuditEventRegistry":{"abi":[{"anonymous":false,"inputs":[{"indexed":true,"internalType":"bytes32","name":"eventType","type":"bytes32"},{"indexed":true,"internalType":"bytes32","name":"policyId","type":"bytes32"},{"indexed":false,"internalType":"bytes32","name":"commitmentHash","type":"bytes32"},{"indexed":false,"internalType":"uint256","name":"committedAt","type":"uint256"},{"indexed":false,"internalType":"address","name":"committedBy","type":"address"}],"name":"AuditEventRecorded","type":"event"},{"inputs":[{"internalType":"uint256","name":"index","type":"uint256"}],"name":"getEvent","outputs":[{"components":[{"internalType":"bytes32","name":"eventType","type":"bytes32"},{"internalType":"bytes32","name":"policyId","type":"bytes32"},{"internalType":"bytes32","name":"commitmentHash","type":"bytes32"},{"internalType":"uint256","name":"committedAt","type":"uint256"},{"internalType":"address","name":"committedBy","type":"address"}],"internalType":"struct AuditEventRegistry.AuditEvent","name":"evt","type":"tuple"}],"stateMutability":"view","type":"function"},{"inputs":[],"name":"getEventCount","outputs":[{"internalType":"uint256","name":"count","type":"uint256"}],"stateMutability":"view","type":"function"},{"inputs":[{"internalType":"bytes32","name":"eventTypeHash","type":"bytes32"}],"name":"getEventsByType","outputs":[{"internalType":"uint256[]","name":"eventIndices","type":"uint256[]"}],"stateMutability":"view","type":"function"},{"inputs":[{"internalType":"bytes32","name":"policyIdHash","type":"bytes32"}],"name":"getPolicyEvents","outputs":[{"internalType":"uint256[]","name":"eventIndices","type":"uint256[]"}],"stateMutability":"view","type":"function"},{"inputs":[{"internalType":"bytes32","name":"eventTypeHash","type":"bytes32"},{"internalType":"bytes32","name":"policyIdHash","type":"bytes32"},{"internalType":"bytes32","name":"commitmentHash","type":"bytes32"}],"name":"recordEvent","outputs":[{"internalType":"uint256","name":"eventIndex","type":"uint256"}],"stateMutability":"nonpayable","type":"function"}],"evm":{"bytecode":{"linkReferences":{},"object":"608060405234801561001057600080fd5b5061076a806100206000396000f3fe608060405234801561001057600080fd5b50600436106100575760003560e01c8063363fc53f1461005c5780636d1884e014610082578063d079b7d0146100db578063d9e48f5c146100fb578063decafd4014610103575b600080fd5b61006f61006a366004610658565b610116565b6040519081526020015b60405180910390f35b610095610090366004610684565b6102c3565b6040516100799190815181526020808301519082015260408083015190820152606080830151908201526080918201516001600160a01b03169181019190915260a00190565b6100ee6100e9366004610684565b6103be565b604051610079919061069d565b60005461006f565b6100ee610111366004610684565b61050f565b600080546040805160a080820183528782526020808301888152838501888152426060808701828152336080808a018281526001808e018f558e80529a517f290decd9548b62a8d60345a988386fc84ba6bc95484008f6362f93160ef3e56360058f029081019190915597517f290decd9548b62a8d60345a988386fc84ba6bc95484008f6362f93160ef3e56489015595517f290decd9548b62a8d60345a988386fc84ba6bc95484008f6362f93160ef3e56588015591517f290decd9548b62a8d60345a988386fc84ba6bc95484008f6362f93160ef3e56687015593517f290decd9548b62a8d60345a988386fc84ba6bc95484008f6362f93160ef3e56790950180546001600160a01b0319166001600160a01b039096169590951790945587518086018e90528089018d90529081018b9052808401829052875180820390940184529485018088528351938501939093208952949092529386208590559286905260c081019190915260e0810191909152849086907f83a56b6489eec76fe2fac0061f6675f3cba312f1d9081881cf16e919be6290cd906101000160405180910390a3949350505050565b6040805160a0810182526000808252602082018190529181018290526060810182905260808101829052905482106103515760405162461bcd60e51b815260206004820152602760248201527f41756469744576656e7452656769737472793a20696e646578206f7574206f6660448201526620626f756e647360c81b606482015260840160405180910390fd5b60008281548110610364576103646106e1565b60009182526020918290206040805160a081018252600590930290910180548352600181015493830193909352600283015490820152600382015460608201526004909101546001600160a01b0316608082015292915050565b600080546060919067ffffffffffffffff8111156103de576103de6106f7565b604051908082528060200260200182016040528015610407578160200160208202803683370190505b5090506000805b60005481101561047757846000828154811061042c5761042c6106e1565b9060005260206000209060050201600001540361046f5780838381518110610456576104566106e1565b60209081029190910101528161046b8161070d565b9250505b60010161040e565b508067ffffffffffffffff811115610491576104916106f7565b6040519080825280602002602001820160405280156104ba578160200160208202803683370190505b50925060005b81811015610507578281815181106104da576104da6106e1565b60200260200101518482815181106104f4576104f46106e1565b60209081029190910101526001016104c0565b505050919050565b600080546060919067ffffffffffffffff81111561052f5761052f6106f7565b604051908082528060200260200182016040528015610558578160200160208202803683370190505b5090506000805b6000548110156105c857846000828154811061057d5761057d6106e1565b906000526020600020906005020160010154036105c057808383815181106105a7576105a76106e1565b6020908102919091010152816105bc8161070d565b9250505b60010161055f565b508067ffffffffffffffff8111156105e2576105e26106f7565b60405190808252806020026020018201604052801561060b578160200160208202803683370190505b50925060005b818110156105075782818151811061062b5761062b6106e1565b6020026020010151848281518110610645576106456106e1565b6020908102919091010152600101610611565b60008060006060848603121561066d57600080fd5b505081359360208301359350604090920135919050565b60006020828403121561069657600080fd5b5035919050565b6020808252825182820181905260009190848201906040850190845b818110156106d5578351835292840192918401916001016106b9565b50909695505050505050565b634e487b7160e01b600052603260045260246000fd5b634e487b7160e01b600052604160045260246000fd5b60006001820161072d57634e487b7160e01b600052601160045260246000fd5b506001019056fea26469706673582212201d124e54aef820cfcdb429e3fe5b828a875c68d77c6cf34cfec19422f3e8630864736f6c63430008180033","opcodes":"PUSH1 0x80 PUSH1 0x40 MSTORE CALLVALUE DUP1 ISZERO PUSH2 0x10 JUMPI PUSH1 0x0 DUP1 REVERT JUMPDEST POP PUSH2 0x76A DUP1 PUSH2 0x20 PUSH1 0x0 CODECOPY PUSH1 0x0 RETURN INVALID PUSH1 0x80 PUSH1 0x40 MSTORE CALLVALUE DUP1 ISZERO PUSH2 0x10 JUMPI PUSH1 0x0 DUP1 REVERT JUMPDEST POP PUSH1 0x4 CALLDATASIZE LT PUSH2 0x57 JUMPI PUSH1 0x0 CALLDATALOAD PUSH1 0xE0 SHR DUP1 PUSH4 0x363FC53F EQ PUSH2 0x5C JUMPI DUP1 PUSH4 0x6D1884E0 EQ PUSH2 0x82 JUMPI DUP1 PUSH4 0xD079B7D0 EQ PUSH2 0xDB JUMPI DUP1 PUSH4 0xD9E48F5C EQ PUSH2 0xFB JUMPI DUP1 PUSH4 0xDECAFD40 EQ PUSH2 0x103 JUMPI JUMPDEST PUSH1 0x0 DUP1 REVERT JUMPDEST PUSH2 0x6F PUSH2 0x6A CALLDATASIZE PUSH1 0x4 PUSH2 0x658 JUMP JUMPDEST PUSH2 0x116 JUMP JUMPDEST PUSH1 0x40 MLOAD SWAP1 DUP2 MSTORE PUSH1 0x20 ADD JUMPDEST PUSH1 0x40 MLOAD DUP1 SWAP2 SUB SWAP1 RETURN JUMPDEST PUSH2 0x95 PUSH2 0x90 CALLDATASIZE PUSH1 0x4 PUSH2 0x684 JUMP JUMPDEST PUSH2 0x2C3 JUMP JUMPDEST PUSH1 0x40 MLOAD PUSH2 0x79 SWAP2 SWAP1 DUP2 MLOAD DUP2 MSTORE PUSH1 0x20 DUP1 DUP4 ADD MLOAD SWAP1 DUP3 ADD MSTORE PUSH1 0x40 DUP1 DUP4 ADD MLOAD SWAP1 DUP3 ADD MSTORE PUSH1 0x60 DUP1 DUP4 ADD MLOAD SWAP1 DUP3 ADD MSTORE PUSH1 0x80 SWAP2 DUP3 ADD MLOAD PUSH1 0x1 PUSH1 0x1 PUSH1 0xA0 SHL SUB AND SWAP2 DUP2 ADD SWAP2 SWAP1 SWAP2 MSTORE PUSH1 0xA0 ADD SWAP1 JUMP JUMPDEST PUSH2 0xEE PUSH2 0xE9 CALLDATASIZE PUSH1 0x4 PUSH2 0x684 JUMP JUMPDEST PUSH2 0x3BE JUMP JUMPDEST PUSH1 0x40 MLOAD PUSH2 0x79 SWAP2 SWAP1 PUSH2 0x69D JUMP JUMPDEST PUSH1 0x0 SLOAD PUSH2 0x6F JUMP JUMPDEST PUSH2 0xEE PUSH2 0x111 CALLDATASIZE PUSH1 0x4 PUSH2 0x684 JUMP JUMPDEST PUSH2 0x50F JUMP JUMPDEST PUSH1 0x0 DUP1 SLOAD PUSH1 0x40 DUP1 MLOAD PUSH1 0xA0 DUP1 DUP3 ADD DUP4 MSTORE DUP8 DUP3 MSTORE PUSH1 0x20 DUP1 DUP4 ADD DUP9 DUP2 MSTORE DUP4 DUP6 ADD DUP9 DUP2 MSTORE TIMESTAMP PUSH1 0x60 DUP1 DUP8 ADD DUP3 DUP2 MSTORE CALLER PUSH1 0x80 DUP1 DUP11 ADD DUP3 DUP2 MSTORE PUSH1 0x1 DUP1 DUP15 ADD DUP16 SSTORE DUP15 DUP1 MSTORE SWAP11 MLOAD PUSH32 0x290DECD9548B62A8D60345A988386FC84BA6BC95484008F6362F93160EF3E563 PUSH1 0x5 DUP16 MUL SWAP1 DUP2 ADD SWAP2 SWAP1 SWAP2 SSTORE SWAP8 MLOAD PUSH32 0x290DECD9548B62A8D60345A988386FC84BA6BC95484008F6362F93160EF3E564 DUP10 ADD SSTORE SWAP6 MLOAD PUSH32 0x290DECD9548B62A8D60345A988386FC84BA6BC95484008F6362F93160EF3E565 DUP9 ADD SSTORE SWAP2 MLOAD PUSH32 0x290DECD9548B62A8D60345A988386FC84BA6BC95484008F6362F93160EF3E566 DUP8 ADD SSTORE SWAP4 MLOAD PUSH32 0x290DECD9548B62A8D60345A988386FC84BA6BC95484008F6362F93160EF3E567 SWAP1 SWAP6 ADD DUP1 SLOAD PUSH1 0x1 PUSH1 0x1 PUSH1 0xA0 SHL SUB NOT AND PUSH1 0x1 PUSH1 0x1 PUSH1 0xA0 SHL SUB SWAP1 SWAP7 AND SWAP6 SWAP1 SWAP6 OR SWAP1 SWAP5 SSTORE DUP8 MLOAD DUP1 DUP7 ADD DUP15 SWAP1 MSTORE DUP1 DUP10 ADD DUP14 SWAP1 MSTORE SWAP1 DUP2 ADD DUP12 SWAP1 MSTORE DUP1 DUP5 ADD DUP3 SWAP1 MSTORE DUP8 MLOAD DUP1 DUP3 SUB SWAP1 SWAP5 ADD DUP5 MSTORE SWAP5 DUP6 ADD DUP1 DUP9 MSTORE DUP4 MLOAD SWAP4 DUP6 ADD SWAP4 SWAP1 SWAP4 KECCAK256 DUP10 MSTORE SWAP5 SWAP1 SWAP3 MSTORE SWAP4 DUP7 KECCAK256 DUP6 SWAP1 SSTORE SWAP3 DUP7 SWAP1 MSTORE PUSH1 0xC0 DUP2 ADD SWAP2 SWAP1 SWAP2 MSTORE PUSH1 0xE0 DUP2 ADD SWAP2 SWAP1 SWAP2 MSTORE DUP5 SWAP1 DUP7 SWAP1 PUSH32 0x83A56B6489EEC76FE2FAC0061F6675F3CBA312F1D9081881CF16E919BE6290CD SWAP1 PUSH2 0x100 ADD PUSH1 0x40 MLOAD DUP1 SWAP2 SUB SWAP1 LOG3 SWAP5 SWAP4 POP POP POP POP JUMP JUMPDEST PUSH1 0x40 DUP1 MLOAD PUSH1 0xA0 DUP2 ADD DUP3 MSTORE PUSH1 0x0 DUP1 DUP3 MSTORE PUSH1 0x20 DUP3 ADD DUP2 SWAP1 MSTORE SWAP2 DUP2 ADD DUP3 SWAP1 MSTORE PUSH1 0x60 DUP2 ADD DUP3 SWAP1 MSTORE PUSH1 0x80 DUP2 ADD DUP3 SWAP1 MSTORE SWAP1 SLOAD DUP3 LT PUSH2 0x351 JUMPI PUSH1 0x40 MLOAD PUSH3 0x461BCD PUSH1 0xE5 SHL DUP2 MSTORE PUSH1 0x20 PUSH1 0x4 DUP3 ADD MSTORE PUSH1 0x27 PUSH1 0x24 DUP3 ADD MSTORE PUSH32 0x41756469744576656E7452656769737472793A20696E646578206F7574206F66 PUSH1 0x44 DUP3 ADD MSTORE PUSH7 0x20626F756E6473 PUSH1 0xC8 SHL PUSH1 0x64 DUP3 ADD MSTORE PUSH1 0x84 ADD PUSH1 0x40 MLOAD DUP1 SWAP2 SUB SWAP1 REVERT JUMPDEST PUSH1 0x0 DUP3 DUP2 SLOAD DUP2 LT PUSH2 0x364 JUMPI PUSH2 0x364 PUSH2 0x6E1 JUMP JUMPDEST PUSH1 0x0 SWAP2 DUP3 MSTORE PUSH1 0x20 SWAP2 DUP3 SWAP1 KECCAK256 PUSH1 0x40 DUP1 MLOAD PUSH1 0xA0 DUP2 ADD DUP3 MSTORE PUSH1 0x5 SWAP1 SWAP4 MUL SWAP1 SWAP2 ADD DUP1 SLOAD DUP4 MSTORE PUSH1 0x1 DUP2 ADD SLOAD SWAP4 DUP4 ADD SWAP4 SWAP1 SWAP4 MSTORE PUSH1 0x2 DUP4 ADD SLOAD SWAP1 DUP3 ADD MSTORE PUSH1 0x3 DUP3 ADD SLOAD PUSH1 0x60 DUP3 ADD MSTORE PUSH1 0x4 SWAP1 SWAP2 ADD SLOAD PUSH1 0x1 PUSH1 0x1 PUSH1 0xA0 SHL SUB AND PUSH1 0x80 DUP3 ADD MSTORE SWAP3 SWAP2 POP POP JUMP JUMPDEST PUSH1 0x0 DUP1 SLOAD PUSH1 0x60 SWAP2 SWAP1 PUSH8 0xFFFFFFFFFFFFFFFF DUP2 GT ISZERO PUSH2 0x3DE JUMPI PUSH2 0x3DE PUSH2 0x6F7 JUMP JUMPDEST PUSH1 0x40 MLOAD SWAP1 DUP1 DUP3 MSTORE DUP1 PUSH1 0x20 MUL PUSH1 0x20 ADD DUP3 ADD PUSH1 0x40 MSTORE DUP1 ISZERO PUSH2 0x407 JUMPI DUP2 PUSH1 0x20 ADD PUSH1 0x20 DUP3 MUL DUP1 CALLDATASIZE DUP4 CALLDATACOPY ADD SWAP1 POP JUMPDEST POP SWAP1 POP PUSH1 0x0 DUP1 JUMPDEST PUSH1 0x0 SLOAD DUP2 LT ISZERO PUSH2 0x477 JUMPI DUP5 PUSH1 0x0 DUP3 DUP2 SLOAD DUP2 LT PUSH2 0x42C JUMPI PUSH2 0x42C PUSH2 0x6E1 JUMP JUMPDEST SWAP1 PUSH1 0x0 MSTORE PUSH1 0x20 PUSH1 0x0 KECCAK256 SWAP1 PUSH1 0x5 MUL ADD PUSH1 0x0 ADD SLOAD SUB PUSH2 0x46F JUMPI DUP1 DUP4 DUP4 DUP2 MLOAD DUP2 LT PUSH2 0x456 JUMPI PUSH2 0x456 PUSH2 0x6E1 JUMP JUMPDEST PUSH1 0x20 SWAP1 DUP2 MUL SWAP2 SWAP1 SWAP2 ADD ADD MSTORE DUP2 PUSH2 0x46B DUP2 PUSH2 0x70D JUMP JUMPDEST SWAP3 POP POP JUMPDEST PUSH1 0x1 ADD PUSH2 0x40E JUMP JUMPDEST POP DUP1 PUSH8 0xFFFFFFFFFFFFFFFF DUP2 GT ISZERO PUSH2 0x491 JUMPI PUSH2 0x491 PUSH2 0x6F7 JUMP JUMPDEST PUSH1 0x40 MLOAD SWAP1 DUP1 DUP3 MSTORE DUP1 PUSH1 0x20 MUL PUSH1 0x20 ADD DUP3 ADD PUSH1 0x40 MSTORE DUP1 ISZERO PUSH2 0x4BA JUMPI DUP2 PUSH1 0x20 ADD PUSH1 0x20 DUP3 MUL DUP1 CALLDATASIZE DUP4 CALLDATACOPY ADD SWAP1 POP JUMPDEST POP SWAP3 POP PUSH1 0x0 JUMPDEST DUP2 DUP2 LT ISZERO PUSH2 0x507 JUMPI DUP3 DUP2 DUP2 MLOAD DUP2 LT PUSH2 0x4DA JUMPI PUSH2 0x4DA PUSH2 0x6E1 JUMP JUMPDEST PUSH1 0x20 MUL PUSH1 0x20 ADD ADD MLOAD DUP5 DUP3 DUP2 MLOAD DUP2 LT PUSH2 0x4F4 JUMPI PUSH2 0x4F4 PUSH2 0x6E1 JUMP JUMPDEST PUSH1 0x20 SWAP1 DUP2 MUL SWAP2 SWAP1 SWAP2 ADD ADD MSTORE PUSH1 0x1 ADD PUSH2 0x4C0 JUMP JUMPDEST POP POP POP SWAP2 SWAP1 POP JUMP JUMPDEST PUSH1 0x0 DUP1 SLOAD PUSH1 0x60 SWAP2 SWAP1 PUSH8 0xFFFFFFFFFFFFFFFF DUP2 GT ISZERO PUSH2 0x52F JUMPI PUSH2 0x52F PUSH2 0x6F7 JUMP JUMPDEST PUSH1 0x40 MLOAD SWAP1 DUP1 DUP3 MSTORE DUP1 PUSH1 0x20 MUL PUSH1 0x20 ADD DUP3 ADD PUSH1 0x40 MSTORE DUP1 ISZERO PUSH2 0x558 JUMPI DUP2 PUSH1 0x20 ADD PUSH1 0x20 DUP3 MUL DUP1 CALLDATASIZE DUP4 CALLDATACOPY ADD SWAP1 POP JUMPDEST POP SWAP1 POP PUSH1 0x0 DUP1 JUMPDEST PUSH1 0x0 SLOAD DUP2 LT ISZERO PUSH2 0x5C8 JUMPI DUP5 PUSH1 0x0 DUP3 DUP2 SLOAD DUP2 LT PUSH2 0x57D JUMPI PUSH2 0x57D PUSH2 0x6E1 JUMP JUMPDEST SWAP1 PUSH1 0x0 MSTORE PUSH1 0x20 PUSH1 0x0 KECCAK256 SWAP1 PUSH1 0x5 MUL ADD PUSH1 0x1 ADD SLOAD SUB PUSH2 0x5C0 JUMPI DUP1 DUP4 DUP4 DUP2 MLOAD DUP2 LT PUSH2 0x5A7 JUMPI PUSH2 0x5A7 PUSH2 0x6E1 JUMP JUMPDEST PUSH1 0x20 SWAP1 DUP2 MUL SWAP2 SWAP1 SWAP2 ADD ADD MSTORE DUP2 PUSH2 0x5BC DUP2 PUSH2 0x70D JUMP JUMPDEST SWAP3 POP POP JUMPDEST PUSH1 0x1 ADD PUSH2 0x55F JUMP JUMPDEST POP DUP1 PUSH8 0xFFFFFFFFFFFFFFFF DUP2 GT ISZERO PUSH2 0x5E2 JUMPI PUSH2 0x5E2 PUSH2 0x6F7 JUMP JUMPDEST PUSH1 0x40 MLOAD SWAP1 DUP1 DUP3 MSTORE DUP1 PUSH1 0x20 MUL PUSH1 0x20 ADD DUP3 ADD PUSH1 0x40 MSTORE DUP1 ISZERO PUSH2 0x60B JUMPI DUP2 PUSH1 0x20 ADD PUSH1 0x20 DUP3 MUL DUP1 CALLDATASIZE DUP4 CALLDATACOPY ADD SWAP1 POP JUMPDEST POP SWAP3 POP PUSH1 0x0 JUMPDEST DUP2 DUP2 LT ISZERO PUSH2 0x507 JUMPI DUP3 DUP2 DUP2 MLOAD DUP2 LT PUSH2 0x62B JUMPI PUSH2 0x62B PUSH2 0x6E1 JUMP JUMPDEST PUSH1 0x20 MUL PUSH1 0x20 ADD ADD MLOAD DUP5 DUP3 DUP2 MLOAD DUP2 LT PUSH2 0x645 JUMPI PUSH2 0x645 PUSH2 0x6E1 JUMP JUMPDEST PUSH1 0x20 SWAP1 DUP2 MUL SWAP2 SWAP1 SWAP2 ADD ADD MSTORE PUSH1 0x1 ADD PUSH2 0x611 JUMP JUMPDEST PUSH1 0x0 DUP1 PUSH1 0x0 PUSH1 0x60 DUP5 DUP7 SUB SLT ISZERO PUSH2 0x66D JUMPI PUSH1 0x0 DUP1 REVERT JUMPDEST POP POP DUP2 CALLDATALOAD SWAP4 PUSH1 0x20 DUP4 ADD CALLDATALOAD SWAP4 POP PUSH1 0x40 SWAP1 SWAP3 ADD CALLDATALOAD SWAP2 SWAP1 POP JUMP JUMPDEST PUSH1 0x0 PUSH1 0x20 DUP3 DUP5 SUB SLT ISZERO PUSH2 0x696 JUMPI PUSH1 0x0 DUP1 REVERT JUMPDEST POP CALLDATALOAD SWAP2 SWAP1 POP JUMP JUMPDEST PUSH1 0x20 DUP1 DUP3 MSTORE DUP3 MLOAD DUP3 DUP3 ADD DUP2 SWAP1 MSTORE PUSH1 0x0 SWAP2 SWAP1 DUP5 DUP3 ADD SWAP1 PUSH1 0x40 DUP6 ADD SWAP1 DUP5 JUMPDEST DUP2 DUP2 LT ISZERO PUSH2 0x6D5 JUMPI DUP4 MLOAD DUP4 MSTORE SWAP3 DUP5 ADD SWAP3 SWAP2 DUP5 ADD SWAP2 PUSH1 0x1 ADD PUSH2 0x6B9 JUMP JUMPDEST POP SWAP1 SWAP7 SWAP6 POP POP POP POP POP POP JUMP JUMPDEST PUSH4 0x4E487B71 PUSH1 0xE0 SHL PUSH1 0x0 MSTORE PUSH1 0x32 PUSH1 0x4 MSTORE PUSH1 0x24 PUSH1 0x0 REVERT JUMPDEST PUSH4 0x4E487B71 PUSH1 0xE0 SHL PUSH1 0x0 MSTORE PUSH1 0x41 PUSH1 0x4 MSTORE PUSH1 0x24 PUSH1 0x0 REVERT JUMPDEST PUSH1 0x0 PUSH1 0x1 DUP3 ADD PUSH2 0x72D JUMPI PUSH4 0x4E487B71 PUSH1 0xE0 SHL PUSH1 0x0 MSTORE PUSH1 0x11 PUSH1 0x4 MSTORE PUSH1 0x24 PUSH1 0x0 REVERT JUMPDEST POP PUSH1 0x1 ADD SWAP1 JUMP INVALID LOG2 PUSH5 0x6970667358 0x22 SLT KECCAK256 SAR SLT 0x4E SLOAD 0xAE 0xF8 KECCAK256 0xCF 0xCD 0xB4 0x29 0xE3 INVALID JUMPDEST DUP3 DUP11 DUP8 TLOAD PUSH9 0xD77C6CF34CFEC19422 RETURN 0xE8 PUSH4 0x864736F PUSH13 0x63430008180033000000000000 "},"methodIdentifiers":{"getEvent(uint256)":"6d1884e0","getEventCount()":"d9e48f5c","getEventsByType(bytes32)":"d079b7d0","getPolicyEvents(bytes32)":"decafd40","recordEvent(bytes32,bytes32,bytes32)":"363fc53f"}}}}}